S014000068656C696368616C6C656E67652E68657833
S113000000300020895C0000A1640000A1640000AD
S1130010A1640000A1640000A1640000A1640000C8
S1130020A1640000A1640000A16400000585000033
S1130030A1640000A16400002D850000297B00005C
S1130040A1640000A1640000A1640000A164000098
S1130050A1640000A1640000A1640000A164000088
S1130060016A0000A1640000A1640000A164000012
S1130070915F0000A1640000A16400009D62000083
S1130080A1640000A1640000A1640000A164000058
S1130090A1640000A1640000A1640000A164000048
S11300A0A1640000A1640000795A0000A16400006A
S11300B0A1640000A1640000A1640000A164000028
S1130400FFFFFFFFFFFFFFFFFFFFFFFF7EFBFFFF7D
S113041000B57F23984204DC021C81237F3200DB79
S1130420C3B258B200BD70B51E4B041C1B68002B30
S113043003D01D4B4200D3569BB21C4A1268002ABB
S113044008D0062161431A4A8A5619B2914200DA49
S1130450131C9BB2174D1EB229576000164A8E42D8
S113046005DB2B55154B00195B78135411E000196B
S1130470165C002E02D0013E16540AE0081C4843C4
S11304801B1818B2013102F005F800B2FFF7C0FFE3
S113049028550A4B1A78074B51B21857884200DA8C
S11304A01A5570BD44AB00008405002048AB000021
S11304B0D0050020CC050020D805002054AB000056
S11304C010B50B88C01A04B27F3401DA7F20404291
S11304D004B27F2C00DD7F2004B2944201DD01339D
S11304E004E052420020944202DA013B0B800620D1
S11304F010BD10B50B785CB2001B04B27F3401DA76
S11305007F20404204B27F2C00DD7F2004B294425D
S113051001DD013304E052420020944202DA013B3F
S11305200B70062010BD10B5124A031C515C7F22CB
S11305300A407F2A1CD01049C978CC0708D50F4936
S1130540895C022904D10E4B9B5CC01A80B20FE077
S11305500C490D485200515A125A914201D98A1A33
S113056000E0521A92B20020934201D99B1A98B229
S113057010BDC046EC0500206C050020DC05002001
S113058064050020A4050020E4050020024B40007F
S11305901A88024BC252704702060020A4050020AC
S11305A010B5034C011C208805F038FB208010BDD9
S11305B00206002010B5034C011C2088FFF7B3FF8E
S11305C0208010BD0206002010B5044C044A238884
S11305D0115C181C01F05EFF208010BD0206002093
S11305E08805002070B5084B084D1C5C0848211C88
S11305F02E8801F001FF864203D901235B422B8040
S113060001E074432C8070BD7C05002002060020AC
S1130610FFFF0000F7B5784B041C5D790E1C022720
S1130620002D00D0EFB2201C00F032FD012E0AD1C3
S1130630724B1B78002B00D1D5E0714B1A578242C4
S113064000DBD0E09FE0022E0DD16E4B1A578242A0
S113065000DA1855201CFFF7E6FE63001C196A4BEC
S11306600022E254BFE0032E00D08EE0201CFFF7EE
S1130670DAFE644B654A185D00282ED0115740B24B
S11306800918C80F41184910C9B2115500221A554A
S1130690594F5B4B019104201B5738565843FFF7C1
S11306A0B7FE6B46061C04201856B0420FDB03212C
S11306B07956801B01F0EEFE801900B2FFF7A8FE08
S11306C0514A63001B19D3185870BA7819E06300B3
S11306D04D4A1B19D3185E7014E04B4863001B1974
S11306E0C318115D01269E5748B286420ADA9878EB
S11306F0002802D00138987004E0013911553E4AAF
S113070092789A703E4A3C490420125708563F4E4C
S113071050433357834203DA00B2FFF779FE305572
S1130720002D10D13A4B03251B78002B0BD0201C35
S113073000F070FA374B8200D358002B03D000210D
S113074006229847051C2E4B291C1F5D2F4B7EB299
S11307501857801B01F09EFE801900B2FFF758FE67
S1130760B04201DC0137F8B22B4B42B21B5D9A4216
S113077008DA5900CB18D318D817800FC31898106B
S1130780FFF746FE244B18552DE0042E2BD11B4AAF
S11307901B4B1278002A02D1174A12781A551E4DA3
S11307A02A5D002A07D1144A04201B5710565843C7
S11307B0FFF72EFE2855184B7FB2185D104B1B57C0
S11307C0C01A4743FB1818B2FFF722FE0F4B0D4A1D
S11307D018550023135561000B4A0C1911197F2079
S11307E048708B70A3540D4B1B68002B01D0012063
S11307F098470020FEBDC04654AB00004DAB00003E
S1130800CC05002080050020D805002068050020C4
S1130810EDAA0000DCAA00006405002004AB00007F
S1130820F0B589B0051C0591062A13D1514A45003B
S11308305519514B514A1B7810786B7058435049E5
S1130840002300B2812201E0CA5401331CB2844265
S1130850FADB8BE0052A00D088E0464A430046498B
S1130860D3185A780F78BA4200D37DE0434B1C78F2
S113087044434348821813577F3362D07E08A31938
S11308800021C0180A1C00900B1CA4460AE03C4836
S1130890041C6444E45600986118C45689B2A21832
S11308A092B20133B342F2DB89B2521A7F2304912C
S11308B03448B90806910193002113B264460090AC
S11308C0029107932EE0069A0399079B881A5843CE
S11308D0311C01F0DFFD0499081800B2311C01F04D
S11308E0D9FD274A039913195B566946C01A80B289
S11308F002B2944600228A5E031C944501DA6A46D9
S1130900138869469BB2043100930023CB5E02B284
S11309109A4201DD6A469088029B80B201339BB201
S11309200190029368460821085E0390B842CADB2E
S1130930009A019BD01A00B2FFF76AFD0D4B6A00C2
S1130940D0540C4B0E4A690005985918141949786B
S113095082227F3002D06A461420825C6D00625489
S11309605B195A78013200E000225A70002009B065
S1130970F0BDC046840500204EAB0000ECAA000088
S1130980A805002081FF0000F7B50C1C062A08D139
S11309905043194B8CB21A18548094800022C254CC
S11309A027E0052A25D106264643134F134BBD19CC
S11309B06988019100215956114B019A1B78A88826
S11309C05BB24A4358431018C918001900B20131E8
S11309D001F060FD6A4683B292886B801BB2AA80E4
S11309E0181BA34200DCE01A400000B2FFF710FD20
S11309F0F0550020FEBDC046D00500204FAB0000DE
S1130A0050AB000000B5084A084BD178880607D5DA
S1130A101978002901D192791A701A78013A00E004
S1130A2092791A7000BDC0466C05002038F0FF1F93
S1130A3010B5072404400123A340084ADCB2C308CC
S1130A40011CD05C204207D0A043D054044B1B6847
S1130A50002B01D00420984710BDC046C4050020D7
S1130A60E4AA000000B50223062808D008230528BC
S1130A7005D00423072802D0431E58424341181CC2
S1130A8000BD044A00231354034A1354034A135465
S1130A907047C046C0050020B0050020F4050020C2
S1130AA010B5041CFFF7EDFF034B00221A55034B4E
S1130AB004221A5510BDC046BC050020DC050020E8
S1130AC010B50E4A00234400A352191C0C4A0D4BC6
S1130AD014781B780C4A1C1914540C4A0524145419
S1130AE00B4A1268002A07D00A4A1154002B03D07B
S1130AF0094B1A78094B1A5410BDC046E40500206E
S1130B004CAB00004DAB0000C0050020DC0500200C
S1130B1040AB00008005002054AB0000CC05002051
S1130B20F8B5041C03250727031C3B4001229A4007
S1130B30131C1B49C208D2B28A5C1A420AD0194B50
S1130B401B5C043B012B02D8022D02D102E00225DA
S1130B5000E00425144E83009B5904219847A042C9
S1130B60E2D10127042D13D1A3009B59201C03219A
S1130B709847071C02280BD1251C281CFFF7A0FF4F
S1130B80AB00281C9B5904219847051CA042F4D1B2
S1130B90064B1B68002B01D002209847381CF8BD77
S1130BA0E0050020DC050020A8AA000010AB00002E
S1130BB008B5FFF7B5FF431E5A1E93415B42184028
S1130BC008BDF8B5002407260127231C33403A1C2E
S1130BD09A40131C0C49E208D2B28A5C1A420CD027
S1130BE0201CFFF79DFF094D00E0041CA3005B5986
S1130BF0201C04219847A042F7D8054B01341B78E8
S1130C00E4B2A342E1D1F8BDE0050020A8AA0000A7
S1130C10ECAA000030B5084B08491C78002305E015
S1130C2001335D18013D2D78854202D8DAB2A24223
S1130C30F6D3101C30BDC046EDAA0000D8AA0000AF
S1130C4070B5061C0C1CFFF7E5FF051C012C16D122
S1130C50002E03D0134B1B5CB34210D107222A4051
S1130C60012393401A1C1049EB08DBB2CB5C1A40F9
S1130C700E4B03D05A5D002A01D0013A5A550C4B51
S1130C80AA00D3581024002B0AD0281C00210522C6
S1130C909847042804D1054B5C5D002C00D0102437
S1130CA0201C70BDD8AA000090050020C8050020B3
S1130CB0DCAA000008B5064B1B68002B00D098473F
S1130CC0012003F0B1FC034B00221A705A7008BDD6
S1130CD01CAB000038F0FF1F10B5074B074918780C
S1130CE000231A1C5C1801332270DCB28442F9D34D
S1130CF0034B01221A7010BDEEAA0000B4050020B7
S1130D0000F0FF1F00B5044B002901DD195401E078
S1130D1000221A5400BDC0468C050020024B40003E
S1130D201A88024BC252704702060020B805002000
S1130D3030B50E4AD378DC0617D50D4C235C01334D
S1130D40DBB22354127A9A420FD10725094A05408F
S1130D500124C308AC40251CD45C4000AC43D454EB
S1130D60054BC9B2C25A8918C15230BD6C05002066
S1130D7060050020C4050020E4050020014B00228A
S1130D801A54704760050020F0B5061C87B0072090
S1130D90331C0291034001219940CBB20593F4081E
S1130DA0694B04949D5D694B9F5D694B9B5D00930A
S1130DB0684B9B5D0193042D03D06B426B41002B68
S1130DC00DD0029952B20324914200DA89E0002442
S1130DD0019401240094271C251C052481E051085A
S1130DE04C080394012D33D1029C013752B2FFB257
S1130DF0944206DB009A01930132D2B20092062497
S1130E0013E0019B06240133DBB20193022B0CD1C6
S1130E1069460C22029C5356E50FDA17301CA34294
S1130E205541FFF72EFEAD0003244B4BDB79BB424B
S1130E3057D87A08BB08009CD31802259C423CDC96
S1130E40029C039904258C4200DD002503243BE029
S1130E50022D09D1029A01248A4242DC0194271C02
S1130E6000930325041C3CE0032D31D1029C01377F
S1130E70FFB28C4206DC019A00930132D2B2019295
S1130E8008240BE0009B08240133DBB20093022BFF
S1130E9004D1301CFFF7F5FD009D01242E4BDB79B6
S1130EA0BB421ED87A08BB08019CD3189C4206DDBD
S1130EB0029C03998C4205DC04252C1C04E00225C9
S1130EC0012401E000250424301CFFF7DAFD08E0CA
S1130ED0029C03998C4202DC04252C1C01E01D1C9D
S1130EE004241E4B1B68002B04D0012C02D1301C9F
S1130EF0029998471A4B1B68002B03D0022C01D18E
S1130F00301C9847631E012B05D80499154B5A5C75
S1130F1005990A4307E0E31E012B06D80499114BF7
S1130F205A5C05998A4304995A54074B6A469D555D
S1130F30064B12789F55064B69469A550979054B1D
S1130F40201C995507B0F0BDDC050020C005002029
S1130F50B0050020F40500206C05002028AB00003B
S1130F602CAB0000C405002038B5051C081C0C1C63
S1130F70FFF750FE002805D0124B1B18013B1B78CD
S1130F80E41AE4B20123A3409CB240006B1EC0B239
S1130F90012B04D80C4B4200D15A214306E0EB1E2E
S1130FA0012B04D8084B4200D15AA143D152042D3D
S1130FB001D0022D05D1044B01304000C25A144324
S1130FC0C45238BDD8AA0000E805002010B5041C9E
S1130FD00B1E01DA4B42DBB2194A105D0130105589
S1130FE0184AD8B2125D184B904207D3002905DA8B
S1130FF0164A115D01311155002201E01A5D0132DA
S11310001A55114B1B5D022B02D1201CFFF748FD22
S11310100B4B0F4A1B5DD279520893420ED30B4AF5
S11310205908125D9B08CB189A4204DD094B6200F3
S11310301988094BD152201CFFF732FD10BDC04660
S1131040C005002064050020B0050020F405002040
S11310506C05002002060020E405002010B50029DC
S113106004DD094B4200D45A013405E0002904D0C0
S1131070054B4200D45A013CD452044B1B68002B4C
S113108000D0984710BDC046E405002030AB0000F6
S113109000B50C4B4000C25A0B4B1B88934203D93A
S11310A09A1A92B2012302E0D21A92B2FF23181CB8
S11310B05043C0B27F2A02D9D801C31AD8B240B271
S11310C000BDC046E405002002060020F7B58C4BA5
S11310D0041C1B68002B00D098478A4B1B68002B0C
S11310E001D0201C9847884B1B5D052B4DD1874BA5
S11310F09B78590700D501E1854B1A5D854B1B7818
S11311009A420FD3844B6200D15A8448002901D1FA
S1131110018805E04D000088691889B241188908E2
S1131120D15206E07E4B1B68002B02D0201C01210B
S11311309847774B1A5D002A02D0013A1A55DDE030
S1131140784B1B68002B01D0201C9847201CFFF70C
S1131150A7FC201CFFF76CFC714B1B68002B02D012
S1131160201C04219847704B1B68002B03D0201CC3
S11311700021062298476D4B1B68002B00D1BDE06F
S1131180201C002106229847B8E0694B1B68002BFD
S113119001D0201C9847634B1B68002B01D0201CF6
S11311A09847644B1E68002E01D0201CB047201CB9
S11311B0FFF76EFF604B051C1B68002B02D0201C40
S11311C0291C98475D4B1B68002B01D0201C9847B5
S11311D0554B1B68002B03D0201C291C0522984763
S11311E0524B1B68002B03D0201C291C0522984756
S11311F04B4B1B68002B13D0002E07D0434AD278E8
S1131200D10703D54E4A125D7F2A09D83E4A201CD5
S1131210125D042A02D00221002A00D1032198473A
S11312203A4B7F219A788A4301920CD0DA7A201CB7
S1131230291CFFF7A9FD022860D1424B1B68002B33
S11312405CD098475AE0404B1B680093002B2BD08E
S11312503E4B1B78002B27D0201CFFF7DBFC3C4BBC
S11312608200D658071C002E17D001990522B047DA
S1131270042808D1374B291C1A5D201CFFF784FD74
S1131280211C009A9047381C00210222B047461EB8
S113129073425E41764206400DE02E4B201C1A5DDF
S11312A0291CFFF771FD06E02A4B201C1A5D291C3E
S11312B0FFF76AFD00261F4B1B68002B06D0204B4E
S11312C01B5D7F2B02D002231E43F6B2224B1B78F8
S11312D0002B0BD1002E09D10C4BDB78990605D5D8
S11312E0094B1B5D042B05D0002B03D0074B9B78C7
S11312F0DA0703D5201C291CFFF7B0FEF7BDC04652
S11313003CAB000038AB0000DC0500206C0500207D
S1131310C00500204DAB0000E405002002060020BB
S113132040AB0000F8AA000044AB000048AB00004A
S1131330F0AA0000F4AA0000FCAA000000AB000020
S1131340EC05002020AB0000E4AA0000EDAA000098
S1131350DCAA00006405002038F0FF1FF8B55D4DDD
S11313606B78002B1BD1AB705B4B5C4C1B78012B57
S11313700DD1FFF747FB2368002B0FD002209847BD
S1131380E87008280BD1AB781843A87007E02368ED
S1131390002B03D001209847E87000E0EB706878D8
S11313A0072601220640131CB340DEB24C4BC5088D
S11313B01B68002B04D0484A1178984742424241A6
S11313C0484B595D0123314206D04749495D3140BC
S11313D0484241410A40534044493E4A8878C00942
S11313E004D050788B7A98425CD101E0002B59D11B
S11313F050783F4B8100CB58002B53D0D278002A31
S113140005D1354A11789847041C012805D1314B80
S113141001219A780A439A7044E0334B5A5D32436F
S11314205A55324B7F229B7893435A4253415B4235
S11314301C40E31EDBB2012B07D82E4B1B68002B8C
S113144005D0244A50789847041C002C04D1214B21
S11314505878FFF73BFE25E0A31FDBB21D4F012B9D
S11314601AD8204B78785A5D0521B2435A55204B3F
S11314708200D35898471F4B1B68002B01D0787803
S11314809847144D6878FFF7D3FA201CFFF7EAFA5F
S1131490697800F02BFC05E0201CFFF7E3FABD7827
S11314A00543BD700B4B14485A7800780132D2B210
S11314B001245A70211C90420AD89C7800225A7048
S11314C00C4203D0044B02221A7001E0FFF704FC23
S11314D0201CF8BD38F0FF1F00F0FF1F10AB000008
S11314E0E8AA0000E0050020B40500206C050020F7
S11314F0A8AA000034AB0000ECAA0000F0B500205C
S113150085B0604E0090071C041C002C16D15E4967
S11315100B78012B0CD1FFF775FA3368002B0DD033
S1131520022098470090082808D10743FFB205E03D
S11315303368002B02D00120984700900723012232
S11315402340101C9840C3B20293504BE1081B681F
S11315500191002B05D04C4A201C11789847424237
S113156042414B4B19784B4B002902D1D97888065C
S113157004D499780123194202D102E0012200E047
S11315801A1C454B0198195C02980123014208D0AA
S113159001984249095C02980140484241410A408D
S11315A053403C4A9178C90903D0937AA34257D156
S11315B001E0002B54D13A4BA200D2580392002AE6
S11315C04ED00099002906D12F4B201C1978904742
S11315D0051C012802D101231F4341E02F4B019830
S11315E002991A5C0A431A542A4B7F229B7893432C
S11315F05A4253415B421D40EB1EDBB2012B06D81D
S1131600284B1B68002B04D0201C9847051C002D78
S113161003D1201CFFF75AFD22E0AB1FDBB2012BE4
S113162019D81D4B019802991A5C8A431A54052152
S1131630201C039A90471B4B1B68002B01D0201CD5
S11316409847201CFFF7F4F9281CFFF70BFA211C1C
S113165000F04CFB04E0281CFFF704FA0743FFB238
S1131660114B01341B78E4B2A34200D94DE7FB07C8
S113167003D5054B02221A7001E0FFF72DFB381C3D
S113168005B0F0BD10AB000000F0FF1FE8AA000099
S113169038F0FF1F6C050020E0050020B405002091
S11316A0A8AA000034AB0000ECAA000030B507245F
S11316B0C20804400125074BD2B2A540002902D13B
S11316C09C5CAC4302E02C1C9D5C2C439C54024B60
S11316D0195430BD90050020C8050020F7B58300DB
S11316E0061C8F481C588F481D5820780F23984398
S11316F00223102808D18C4B9B5D002B03D0488813
S11317000323002800D00023002B00D0DCE0012AB2
S113171000D0D9E06078C00900D1DDE04B88002B0F
S113172079D10093A0E06868002802D05E00305AA6
S113173004E00F20184001268640B0B24E880642CD
S113174066D00F8801972F883E43019F374007409A
S113175087422DD12E7A6B720136F6B22E726079E1
S1131760042701906846C757013276B2D2B2207975
S1131770BE4209DD019E002E06D080277F423843F9
S11317802071C60642D443E07F26304041262071B2
S1131790304001283CD1E678A768BB55E6780F278E
S11317A001363E40A778E6700090B74230D128E079
S11317B0019FBE43064086422AD1287A0526013875
S11317C0C0B22872A657013240B2D2B2864203DBBD
S11317D026797F203040207120794226304002282B
S11317E016D18027E078A6687F421F433754E078FB
S11317F00F270130A67838400127E0700097864211
S113180006D1207940263043207101E0012600965C
S11318100133DBB203E00022131C0092B446A87A21
S1131820984200D97FE766460023002A02D14A88FD
S11318302B8813432A7A2B8051B23B4B002907DDB6
S1131840217905220A40052A0ED1E2799A550BE046
S1131850002A09D1FF229A5561788F0604D5C9065A
S1131860C90E301CFFF722FF2F4B9A5D002A1CD1B2
S1131870217944220A40042A17D10822AA56002AB0
S113188013DDE278687AA1688854E2780F21013286
S11318900A40A178E270914204D123794022134393
S11318A0237105E0A2799A5502E0009B002B35D004
S11318B062784023134031D01C4BB600F358002B00
S11318C02CD02078984726E0022A24D0032A03D17A
S11318D06378DB06DB0E21E0042A11D10023637058
S11318E0A370E37023716371A371E371FF22A16894
S11318F0CA540133102BFAD100232B726B720DE002
S1131900052A05D163787F22934307D0042305E099
S1131910062A03D101E0002300E00323181CFEBDC6
S1131920D4AA0000D0AA0000AC050020CCAA000074
S113193070B50607F0230340141C360F1520102B36
S113194068D1354BB200D5581320002962D0012943
S113195019D1E20601D120239C432021214002D148
S1131960301CFFF7A3FE40231C4205D02B4AB600CF
S1131970B258002A00D19C432B799A0701D17F23C6
S11319801C406C7005E0022905D114200F2C41D8AD
S1131990AC7000203EE003293CD004291BD1A307EE
S11319A003D16A787F2313406B70AB79002B01D18C
S11319B004239C432A797F23111C994302D080235A
S11319C01C4300E01C4040231A4200D19C432023C6
S11319D09C432C71DDE7052904D114200F2C19D860
S11319E06C71D6E7072907D1002C03D12B79042287
S11319F093432B71EC71CCE7062907D1002C03D15A
S1131A002B79042293432B71AC71C2E708394B1E26
S1131A109941401A70BDC046D4AA0000CCAA000067
S1131A2000B50007034B800EC3581220072900D8C5
S1131A30585C00BDD4AA000070B50E4B0E4A1D6858
S1131A400E4B7F201C780023191C002D02D0D618C1
S1131A50317000E0D0540133DEB2A642F5D3084B16
S1131A6008491878FF220023CA540133DCB28442A7
S1131A70FAD370BD40AB000064050020ECAA00005E
S1131A80EEAA0000E005002070B5224D224E00248D
S1131A90201CFFF705F82B68002B01D0201C984769
S1131AA0201CFFF70DF801343378E4B2A342EFD8D9
S1131AB01A4B1B481A7800235400191C5D0001338B
S1131AC0DBB22952A342F9D30023164D1648FF2452
S1131AD0191C1E18EC5401333170DEB29642F8D34F
S1131AE0124B1349187800231A1C5C180133227016
S1131AF0DCB28442F9D30F4B0F49187800231A1C27
S1131B005C1801332270DCB28442F9D3FFF7E4F8A5
S1131B1070BDC0462CAB0000ECAA0000EDAA00008A
S1131B20E8050020AC050020C8050020EFAA00004D
S1131B3090050020EEAA0000C405002070B51B4BE0
S1131B4008225A7164229A710422DA710F225A729D
S1131B503F22DA72FF2200245A7301221C705C8037
S1131B601C711C729C721A73FFF78EFFFFF764FFDF
S1131B700F4B104E1D7809E0A3009B59002B03D096
S1131B80201C0021042298470134E4B2A542F3D872
S1131B90094B1B68002B01D001209847FFF78AF8F6
S1131BA02023184000D0022070BDC0466C050020E0
S1131BB0EDAA0000DCAA000004AB000038B503283D
S1131BC03BD000231F491A1C5C18A4780133121956
S1131BD0D2B20C2BF8D11C4B1C491C78002303E017
S1131BE0CD5C01335219D2B2DDB2A542F8D3184B01
S1131BF018491C78002303E0CD5C01335219D2B29A
S1131C00DDB2A542F8D3144B022813D1197800236E
S1131C10914214D00B4B04211A780A43D9781A70D4
S1131C207F220A40DA700D4B1B68002B07D0FF207F
S1131C30984700E01A70002301E0074B1B78181C3A
S1131C4038BDC0466C050020ECAA000064050020E5
S1131C50EEAA0000E00500206105002018AB00009A
S1131C60F8B51C4B00241C4D1F7830E0072323409B
S1131C7001229A40D3B22A88002A04D01749E208E4
S1131C80885C98438854164E315D00290BD1134863
S1131C90E208825C1A4206D0124BA200D358201CE0
S1131CA0032298473055104B1A5DFF2A01D0013AA0
S1131CB01A550C4BA200D358002B03D0201C291C0E
S1131CC001229847002301346B80E4B20435A74213
S1131CD0CCD8F8BDEDAA0000E8050020900500204E
S1131CE0C8050020DCAA0000AC05002010B5031CC8
S1131CF0134A980703D5107801242043107058071D
S1131D0003D5107802242043107008240C4A23427F
S1131D1006D01378D0781C437F2303401470D3700B
S1131D201378002B0BD0074B1B68002B01D0081C29
S1131D309847054B1B68002B01D00120984710BD24
S1131D406C05002018AB000004AB000000B5124A7B
S1131D50031C117B03220A400020022A1AD1032B00
S1131D6005D10E4B1A787E2A14D8013211E0012BCA
S1131D7005D10A4B18784342584140010AE0022B2E
S1131D8008D1064B01201A78904280414042C0009D
S1131D9000221A7000BDC0466C0500203CF0FF1FF5
S1131DA0F8B51F4B1D68002D01D00220A8471D4B1C
S1131DB000275A881C4B1A4080231B029A4224D1C4
S1131DC0FFF79CFBFE23041C071C184202D0FF21D2
S1131DD0FFF78CFF01231C4217D1124CA2781A4240
S1131DE001D09A43A270A3780426334204D0FEF7AC
S1131DF0E8FEA378B343A370002D01D00120A847C7
S1131E000A4B1B68002B00D0984701203C1C04405F
S1131E1005D1074B1868002801D08047201CF8BD65
S1131E2004AB00006C0500204080FFFFE0AA000026
S1131E3008AB0000F8B51F4B1D68002D01D002202F
S1131E40A8471D4B00275A881C4B1A4080231B02AD
S1131E509A4224D1FFF782FAFE23041C071C18427D
S1131E6002D0FF21FFF742FF01231C4217D1124C7D
S1131E70A2781A4201D09A43A270A378042633426E
S1131E8004D0FEF79EFEA378B343A370002D01D0C7
S1131E900120A8470A4B1B68002B00D0984701205B
S1131EA03C1C044005D1074B1868002801D080472A
S1131EB0201CF8BD04AB00006C0500204080FFFF2F
S1131EC0E0AA000008AB0000014B8000C15070473D
S1131ED0F0050020014B8000C0587047F005002039
S1131EE0014B8000C0587047D4AA000000B5064BCF
S1131EF0002801D1187805E01A5C0138C0B21B5CD7
S1131F00D01AC0B200BDC046D8AA000000B500284F
S1131F1003D00138014BC0B2185C00BDD8AA000040
S1131F20024B185C0138C0B27047C046D8AA000002
S1131F3070B5041C0B2829D10725294004200E1C48
S1131F4006401A4B0325002E0ED01B7B00242B4089
S1131F50022B14D1052002F067FB154B041C1B68EF
S1131F60281C984780200BE01C7B4C402C4006D05A
S1131F700D401D7302F058FB041C301C00E0201CB3
S1131F800C231C4210D1072318430DE000200C2C15
S1131F900AD1064B0420597302F046FB0440634205
S1131FA05C4107206442204070BDC0466C0500209F
S1131FB010AB000070B5031C08280BD104200F29B6
S1131FC055D82B4B0620597202F02EFB01230340F7
S1131FD005200FE0092812D1264B04201B78013B71
S1131FE0994244D8224B9972062002F01DFB022329
S1131FF0034006205A4253415B42184037E00A2806
S113200005D10420002932D0194BD972ECE7002005
S1132010012B2CD1164A402390784506ED0FAD01D3
S11320204D401D402E1E07D0984319400143917026
S1132030022002F0F9FA061C0D4CA3789A085B06FC
S1132040DB0F1A4206D0082002F0EEFAA37804222D
S11320509343A370281E0AD0072002F0E5FA012357
S113206006431E4073425E4105207642304070BDF7
S11320706C050020ECAA000038B5114CC009A37807
S1132080DA0982421AD07F25C0012B400343A37092
S1132090022002F0C9FA082002F0C6FAFFF7F4FCA5
S11320A0A378AB430AD0074BA07A1988064B4200A9
S11320B0D152064B1B68002B00D09847002038BD36
S11320C06C05002002060020E4050020F8AA0000A8
S11320D070B5CDB20C2800D9BAE0824B002815D1D6
S11320E00F221B7815400122134200D1954302228E
S11320F0134200D195430422134200D19543082290
S1132100134200D19543774B1D70C9E0012862D179
S113211098780422104204D10C1C144090432043AC
S1132120987098780122104204D12C1C14409043DA
S1132130204398706B4B9879DA78002802D12020DC
S1132140824305E08804C00F20244001A2430243D7
S1132150DA70644B187ADA78002802D110208243AE
S113216005E0C804C00F10240001A2430243DA7042
S11321705C4B02209E780C1C86430440301C204398
S113218001228C0B9870D87840261440A401B043E7
S113219020437F24CE0B204080249440F60121402C
S11321A030430C1290432043D8704F4800680028F5
S11321B004D1002902D0D9789143D9704B4B1B68C4
S11321C0002B01D0281C9847494B05241B6801208B
S11321D0002B39D170E0042808D16A1E041C1F2A80
S11321E06AD85D71032002F01FFA59E0052807D16F
S11321F0002D03D1DA7820218A43DA709D714FE0F3
S1132200062805D16A1E04241F2A55D8DD7147E02B
S1132210072807D1002D03D1DA7810218A43DA7018
S11322201D723DE0031C083B022B03D8304B0524F0
S11322301B6807E0031C0B3B0024012B3CD82D4BEF
S113224007241B68002B37D0291C9847041C33E053
S1132250294B1B781A1C0D32904208D2AB1E042461
S11322607D2B29D8254B18180D38057018E0244A01
S113227011785A18141C0D34A04213D20D22524264
S1132280D31A204A1018C554022002F0CDF91E4B6F
S11322901C68002C10D0134B04219A780A439A70BE
S11322A0002409E00B1C0D339B180324984203D32C
S11322B0C01A431E9841241A0A4B02219A780A42F2
S11322C006D08A439A70FFF739FC022800D109240A
S11322D00E4B1B68220603D4002B01D00120984723
S11322E0201C70BD6C050020F4AA000024AB000083
S11322F014AB00000CAB0000ECAA00006405002045
S1132300EEAA0000E005002034AB000004AB00009E
S113231010B5031E01D12B4B31E0012B21D1294BE8
S1132320DA789B785106D009C90F8903C0030843A2
S1132330D907C90FC9B208439106C90FD206490388
S1132340D20F08431203D9091043C901084340219D
S1132350194008430421194002220843134018433A
S11323602EE00C2B02D8184AD05C29E0174A1178C9
S11323700A1C0D32934204D2154AD3180D3B187827
S11323801EE0144A10780A18141C0D34A34206D215
S11323900D225242511A104AD318585C10E0011C05
S11323A00D3189188B4202D29B1A0C4AE5E70220B0
S11323B08B4205D10A4B1B68002B01D003209847A0
S11323C010BDC0466C0500206D050020ECAA00007D
S11323D064050020EEAA0000E0050020C4050020EA
S11323E004AB000002B4714649084900095C490085
S11323F08E4402BC7047C046002934D00123002219
S113240010B488422CD301242407A14204D281426F
S113241002D209011B01F8E7E400A14204D281427F
S113242002D249005B00F8E7884201D3401A1A43FC
S11324304C08A04202D3001B5C0822438C08A04233
S113244002D3001B9C082243CC08A04202D3001BE9
S1132450DC082243002803D01B0901D00909E3E763
S1132460101C10BC7047002801D00020C04307B4E2
S1132470024802A14018029003BDC046D9000000E2
S11324800029F0D003B5FFF7B9FF0EBC4243891A07
S11324901847C046002941D010B4041C4C40A4463F
S11324A001230022002900D54942002800D54042DA
S11324B088422CD301242407A14204D2814202D2AF
S11324C009011B01F8E7E400A14204D2814202D2CF
S11324D049005B00F8E7884201D3401A1A434C08CC
S11324E0A04202D3001B5C0822438C08A04202D302
S11324F0001B9C082243CC08A04202D3001BDC082A
S11325002243002803D01B0901D00909E3E7101C6A
S11325106446002C00D5404210BC7047002806D009
S113252003DB0020C043400801E08020000607B41C
S1132530024802A14018029003BDC04619000000E1
S11325400029EBD003B5FFF7A7FF0EBC4243891A5D
S11325501847C0467047C0468446081C6146FFE7DA
S11325601FB500F00BFA002801D40021C8421FBD9A
S113257010B500F089F94042013010BD10B500F0EB
S1132580FDF9002801DB002010BD012010BDC0466C
S113259010B500F0F3F9002801DD002010BD012082
S11325A010BDC04610B500F099F9002801DC0020E8
S11325B010BD012010BDC04610B500F08FF90028F1
S11325C001DA002010BD012010BDC04610B59E21C7
S11325D0C905041CFFF7F0FF002803D1201C00F0FC
S11325E0F7FC10BD201C9E24E10500F027FB00F041
S11325F0EFFC80221306C018F3E7C046F0B55F462F
S113260056464D464446F0B4C20F0E1C45024400E3
S1132610D1B285B06D0A240E9246894607D1002DA9
S113262000D09AE004270123BB4602930AE0FF2C62
S11326305FD0802001040D4300270023ED007F3C80
S1132640BB460293371C7900FB0F7602760A080E0C
S11326509846DFB2002853D10123002E00D089E030
S1132660494679400191594619430F2957D9241AEB
S113267003946D017601B54200D3BEE003981B2498
S11326800138039000210120631E071C1F404900EC
S11326906B00B34200D2C6E09B1B0143013C002CFB
S11326A000DCBBE0002F0CD01D1C49005B00B342D2
S11326B000D3AFE0002D00DAACE0013C002C00DCDC
S11326C0ACE0019A05E09B1B0143013C002C00DCBB
S11326D0A3E05D004900B54201D2002B01DAAD1B35
S11326E00143013C6B004900B342ECD2002DECDA0B
S11326F0E9E7002D2CD10822022093460290A1E79D
S1132700FF2820D0802349461A0479401643002329
S113271001915946F6007F3819430F29A7D88A003A
S11327205649934659440A689746019AFF23002064
S1132730DE05D7073043384305B03CBC9046994684
S1132740A246AB46F0BD331C5A1E9341023387E7C1
S11327500C2003218346029174E7281C00F004FD39
S11327607627411F7C42002300228D40241A9B4679
S1132770029267E7301C00F0F7FC7622431F5142B7
S11327809E40081A00236BE7019A00230020CFE73C
S113279000223B48FF23CBE7351C0197022BC4D012
S11327A0032B63D0012BEFD0039B7F33002B3EDD43
S11327B00F262E40042E00D00435290103D53149BB
S11327C0039B0D408033FE2BAFDCAD01680ADBB206
S11327D0019AADE78027F803054212D0064210D1D2
S11327E030430125464641023540480AEAB2FF23F8
S11327F09EE74F460197029BD0E7AD1B1A240121A7
S113280041E728430122544640022240400AD2B202
S1132810FF238DE79B1B01434FE701921D1C6B1E99
S11328209D410D43C0E7002D00DB37E734E77E20F0
S1132830039A4442A31A1B2BA6DC2E1CDE40039BE6
S11328400F279E339D402B1C5D1EAB4133431F401D
S1132850042F00D00433590103D5019A0123002029
S113286066E79901480A019A002361E78022D403AC
S11328702C436502680A019AFF2359E7CCA900009A
S1132880FFFF7F00FFFFFFF7F0B543024A005B0A3A
S11328904400C70F160E48021A1C250E440A501E87
S11328A08241C90F002A13D1002C0BD1A34213D1AA
S11328B0B54211D100208F4203D0281C451EA841E7
S11328C01043F0BD0120FF2EFBD0A34204D1EFE75B
S11328D00120FF2DE8D1F4E70120F2E7F0B54746E7
S11328E080B4430245004A024E00C00F5B0A2D0E1D
S11328F08446520A360EC90F002B28D1002A3AD139
S11329005C425C416F426F412740544254417042E3
S11329107041044012D1002F07D04F424F417842FA
S11329200121084304BC9046F0BD002C0AD18C451B
S113293012D06346584201252843F3E70020002FB4
S1132940E9D0EFE76246504201263043EAE7FF2D23
S1132950D4D102277842E5E7B542F3DC04DB9342A5
S1132960E7D800209342DDD26146484248414042C4
S113297001242043D6E7FF2EC2D1EAE7F0B547464B
S113298080B4430244004A00C60F48025B0A240E86
S1132990450A120EC90F002B05D00220FF2C02D1CC
S11329A004BC9046F0BD002D02D00220FF2AF7D0CF
S11329B058425841674267410740BC4668426841F3
S11329C0574257410740B84611D16046002808D104
S11329D04746002F01D18E420ED07042012630436B
S11329E0DEE74D424D41684201210843D8E767467E
S11329F00020002FE9D0D3E79442EEDC04DBAB42A5
S1132A00EBD80020AB42CBD2744274416042012225
S1132A101043C5E7F0B55F4656464D464446F0B40C
S1132A20C20F0F1C44024500D1B285B0640A2D0EBA
S1132A3091468A4606D1002C72D104260123B3465E
S1132A4002930AE0FF2D44D0802001040C430026A9
S1132A500023E4007F3DB34602937E027B00FF0F18
S1132A60FAB2760A180E90463AD10123002E64D1A8
S1132A704146524651400191594619430F293FD9C5
S1132A802818A3B2B7B20390181C320C7843250C53
S1132A9053436F43060C9C19E31955439F4200D9D5
S1132AA0A0E006041C04370CE1191A0C8C01601E0A
S1132AB08441AE18880E0443B3011C43230106D598
S1132AC0039B012525400133640803932C43019A99
S1132AD048E0002C1FD10822022093460290BCE754
S1132AE0FF2813D0802211040E4352464146514020
S1132AF0002301915946F6007F3819430F29BFD8A6
S1132B0089004B4A8B465A4411688F46331C5A1E1F
S1132B1093410233ACE70C200321834602919CE7E6
S1132B20201C00F021FB7626411F75420023002261
S1132B308C402D1A9B4602928FE7301C00F014FB48
S1132B407621421F4B42181A9640002390E7012039
S1132B5049460840029BC2B2022B2FD0032B22D03D
S1132B60012B45D003987F30002844DD0F272740F0
S1132B70042F00D00434210103D52E4E0398344091
S1132B808030FE281ADCA5016C0AC0B2C005D20749
S1132B902043104305B03CBC90469946A246AB4640
S1132BA0F0BD254C00228021C803044363025C0A63
S1132BB0FF20EBE7029B019A022BCFD1FF200024D8
S1132BC0E4E701242740FAB2341CC5E7019A341C17
S1132BD0C2E78022D3031C4208D01E4206D1341C13
S1132BE04246E0E7802779026D185AE75246DAE751
S1132BF000200024CAE77E2103984B421B1A1B2B9A
S1132C00F6DC039E271C9E36B440DF40231C5C1E6A
S1132C10A3413B430F241C40042C00D0043359012E
S1132C2003D49D016C0A0020B0E701200024ADE725
S1132C300CAA0000FFFFFFF7FFFF7F00F8B5470273
S1132C404A02BE09920943004C00C00FB4465742E1
S1132C5057411B0EC5B2240EC90F002F14D1FF2CEF
S1132C6012D18D4214D0181B002800DCA9E0002CDE
S1132C7031D1002F00D083E00138002800D0BFE01C
S1132C806646B61A1C1C3AE0012671408D42EAD110
S1132C90191B002900DCA6E0002C00D174E0FF2BF6
S1132CA000D17DE08027FC04224301261B2900DC9F
S1132CB0CCE066441C1C710100D479E0631CFF2B3A
S1132CC000D1D4E0B64F374001263E407A0816437F
S1132CD0A71C1C1C2DE0FF2B62D08024E1040A43B6
S1132CE001261B2808DC171C2026C740301A824006
S1132CF0161C721E96413E436246961B1C1C7001B4
S1132D0056D5B2019609301C00F02EFA331C053852
S1132D108340844249DC041B1F210F1B621C1E1CC0
S1132D20D640BB40301C1E1C731E9E410643012727
S1132D3000240F213140042900D00436012215401B
S1132D40720105D5FF2F4BD0954C26403C1C013712
S1132D50F6082FD0FF221740F80F00230121B942B3
S1132D604341002B26D0002C28D08021C8030643E1
S1132D707302580AE4B2E405ED0720432843F8BD82
S1132D805F1C66461C1CD4E7002FF9D101390029C9
S1132D9003D1614656181C1C8DE7FF2B00D084E735
S1132DA0802766467F00FF24C3E77D4E241A1E4019
S1132DB0671CBEE77602700AE4B2DCE77702780AA1
S1132DC0D9E7002820D15E1CF4B2012C69DD6646E7
S1132DD0B61A700131D56546561B1C1C0D1C92E7B2
S1132DE0FF240020C7E7002967D15C1CE1B2012958
S1132DF045DDFF2C00D182E0624456089F1C98E711
S1132E00FF2B00D06CE7CBE74042002B28D0FF2CEF
S1132E1069D080236746DE043743BC4601261B285D
S1132E2008DC65462027C5406646381A8640701E71
S1132E3086412E43961B0D1C61E71C1C002E00D0FE
S1132E4061E7002501270426002479E720277E1A5C
S1132E50141CB240161CCC40721E9641264328E72F
S1132E606346002B45D1671C161C0D1C61E7012528
S1132E7028408023C5B2FF245F00042660E7002BAE
S1132E8077D16046002800D199E0002F00D09AE065
S1132E901618710100D48AE0414802270640012433
S1132EA047E7002B12D16346002B44D1002FC8D131
S1132EB0161C0D1C012700243BE74942002B25D199
S1132EC06346002B76D1671C161C32E76046002847
S1132ED03DD1002F07D0802700257F00314EFF24ED
S1132EE02EE7FF2C9AD18020161C0D1C4700FF24CE
S1132EF01FE701380028F4D1D61A0D1CFFE601267D
S1132F0030408022C5B25700042619E7FF2C42D076
S1132F1080236646DF043E43B44601261B2908DCB1
S1132F2020266746CF40711A66468E40711E8E4138
S1132F303E43B618BFE66646002F38D1B61A63463C
S1132F40700131D5D61A0D1C01270024F1E6002F9B
S1132F5000D025E78027C608FB031E4204D0D20810
S1132F601A4201D1161C0D1C8021F6004F00FF24CB
S1132F70DFE66346002B0ED0002F00D010E780243C
S1132F80DE08E3031E42EFD0D2081A42ECD1161C2D
S1132F90EAE7FF2CC1D18023161C5F00FF24C8E69A
S1132FA0FFFFFFFBFCFFFF03002E00D149E70127D1
S1132FB00024BEE601390029EBD1D6187BE6161CA5
S1132FC001270024B5E6664601270024B1E6C04681
S1132FD000B541024300C20F490A1B0E00207E2B9C
S1132FE00DDD9D2B0CDC802000040143952B0ADCB5
S1132FF09620C31AD9404842002A00D1081C00BDBB
S113300002481018FBE7963B9940F4E7FFFFFF7F67
S113301070B5041E48D0E50F00D06442201C00F0B7
S1133020A3F89E23261C1B1A962B09DC083884401F
S11330306002400ADBB2DB05ED071843284370BD8C
S1133040992B0ADD0524221A041C311C1B34D1409F
S1133050A6400A1C711E8E411643052828DC174C15
S11330600F2226403240042A00D00436720105D5CE
S11330709F231B1AFF2B19D010480640FF245A1C0B
S113308022400121D40F002091424441F608211E20
S113309006D0002E04D0002B0DD08021C803064397
S11330A07202500ADBB2C6E7002500230020C2E703
S11330B0411F8E40D3E77602700ABCE7FFFFFFFB97
S11330C038B5041E42D0201C00F04EF89E231B1A73
S11330D0962B07DC083884406002400ADBB2DB052B
S11330E0184338BD992B0ADD021C1B32251C954060
S11330F02A1C511E8A4105210D1AEC40144305284F
S113310027DC184A0F2514402540042D00D0043430
S1133110620105D59F231B1AFF2B20D011480440C0
S1133120FF255A1C2A400121D50F00209142454118
S1133130E408291E06D0002C04D0002B0CD08021DA
S1133140C80304436202500ADBB2C8E7002300202C
S1133150C5E7411F8C40D4E76402600ABFE7FF2340
S11331600020BCE7FFFFFFFB1C2101231B04984246
S113317001D3000C10391B0A984201D3000A083904
S11331801B09984201D30009043902A2105C4018BB
S11331907047C0460403020201010101000000005F
S11331A00000000080B582B000AF78603960402034
S11331B080F31188FEE7C04680B500AFBD4680BDF0
S11331C080B500AFBD4680BD80B500AF402080F320
S11331D01188FEE780B584B000AF78607B68FB603F
S11331E0FB6801221A71BD4604B080BD80B582B06F
S11331F000AF7860BD4602B080BDC04680B500AF68
S1133200BD4680BD80B500AFBD4680BD80B582B0EF
S113321000AF021CFB1D1A70BD4602B080BDC04643
S113322080B500AF04F09CFCBD4680BD80B584B081
S113323000AF3B1D187011E00D4B9A680C4B9B7846
S1133240D2183B1C0F3312781A70094B9B78013348
S1133250DAB20F231340DAB2054B9A70044B9A7812
S1133260034BDB789A42E7D1BD4604B080BDC0462B
S113327014F0FF1F80B500AF03F0D8F900F006F892
S113328001F0B6F805F0CCFDFEE7C04680B500AF0E
S113329001F0FCF800F00CFA04F080FC00F02CFFC4
S11332A0BD4680BD80B500AF00F00CFC034B9B68AD
S11332B0181C03F0A1F8BD4680BDC04684F0FF1F72
S11332C080B500AF184B1B78042B27D89A00174BF6
S11332D0D3181B689F4600F045F8031C1A1C124BB8
S11332E01A701CE000F06CF8031C1A1C0E4B1A70C8
S11332F015E000F091F8031C1A1C0B4B1A700EE039
S113330000F054F9031C1A1C074B1A7007E000F074
S113331053F9031C1A1C044B1A7000E0C046FEF754
S11333203FFDBD4680BDC0463DF0FF1F4CAA0000D6
S113333080B500AF01F0B0F801F01CF9031C181CB3
S113334000F09EFA01F020F9031C181C00F060FA4A
S1133350034B5B68181C02F0FDFFBD4680BDC046F0
S113336084F0FF1F80B500AF042000F0D3FB031CE2
S1133370012B19D1012000F0CDFB031C012B01D13D
S113338001231AE0022000F0C5FB031C012B01D12C
S1133390042312E0002000F0BDFB031C012B01D12B
S11333A003230AE0002308E0002000F0B3FB031C21
S11333B0012B01D1022300E00023181CBD4680BD6F
S11333C080B500AF00F098FE01F09CF804E000F036
S11333D079FE052005F0FAFC002000F09BFB031C9D
S11333E0012B04D1042000F095FB031CEFD001F065
S11333F095F8084B181C05F0E9FC00F09DFE00F060
S1133400B3FF9B2005F0E2FC00F086FE0023181CAD
S1133410BD4680BDD606000090B583B000AF624BB8
S1133420181C05F0D3FCBB1D00221A8000F08CFF91
S11334300FE0BC1D00F0F8FB031C2380BB1D1B88A0
S1133440181C0A21FEF7D8FF031C9BB2181C00F0BD
S113345079F9012000F05EFB031CEAD000F084FF40
S1133460012000F061FF504B181C05F0AFFC0FE089
S1133470BC1D00F0B9FB031C2380BB1D1B88181C5A
S11334800A21FEF7B9FF031C9BB2181C00F05AF97D
S1133490012000F03FFB031CEAD0002000F044FFB1
S11334A0012000F031FF404B181C05F08FFC0FE0A9
S11334B0BC1D00F0CBFB031C2380BB1D1B88181C08
S11334C00A21FEF799FF031C9BB2181C00F03AF97D
S11334D0012000F01FFB031CEAD000F035FF324B43
S11334E0181C05F073FC0FE0BC1D00F0EFFB031C7F
S11334F02380BB1D1B88181C0A21FEF77DFF031CBB
S11335009BB2181C00F01EF9012000F003FB031C01
S1133510EAD000F029FF012000F0E6FE224B181C3F
S113352005F054FC0FE0BC1D00F0B0FB031C23802D
S1133530BB1D1B88181C0A21FEF75EFF031C9BB2EF
S1133540181C00F0FFF8012000F0E4FA031CEAD094
S1133550002000F0C9FE012000F0B6FE124B181C3A
S113356005F034FC0FE0BC1D00F0C2FB031C2380FB
S1133570BB1D1B88181C0A21FEF73EFF031C9BB2CF
S1133580181C00F0DFF8012000F0C4FA031CEAD094
S113359000F0EAFEFA239B00181C05F017FC002338
S11335A0181CBD4603B090BD7701000080B500AF84
S11335B00323181CBD4680BD80B500AF00F004F89D
S11335C00423181CBD4680BD80B582B000AFFB1D2E
S11335D001221A70FA235B00181C05F0F7FB012086
S11335E000F098FA031C05D02B4B1B780133DAB298
S11335F0294B1A70284B1B78002B04D1274B181C1D
S113360001F000F841E0244B1B78012B07D1244B37
S1133610181C00F0F7FF012000F056FE35E01E4BA9
S11336201B78022B0AD11F4B181C00F0EBFF002063
S113363000F04AFE012000F057FE26E0164B1B78EE
S1133640032B0AD1184B181C00F0DCFF002000F0FB
S11336504BFE012000F058FE17E00F4B1B78042BA3
S11336600AD1124B181C00F0CDFF002000F04CFED4
S1133670012000F059FE08E0002000F055FE064B42
S113368000221A70FB1D00221A70FB1D1B78181CE7
S1133690BD4602B080BDC0463EF0FF1F50A90000E9
S11336A05CA9000064A900006CA9000074A90000D2
S11336B080B584B002AF124B1A78FB1D1A703B1C04
S11336C000221A703B1C00225A703B1C00229A7084
S11336D03B1C0022DA703B1C00221A713B1C2A227C
S11336E05A71084B1978FA1D3B1C06200090081CDF
S11336F0111C012203F098F8BD4602B080BDC046FB
S113370061AA000060AA000080B586B002AF021C66
S1133710FB1D1A70094B1A783B1C0F331A70084BA7
S113372019783A1C0F32FB1D01200090081C111C53
S1133730012203F079F8BD4604B080BD62AA0000FE
S113374060AA000090B583B000AF021CBB1D1A80B4
S1133750BB1D1B88181C0A21FEF792FE0B1C9BB292
S1133760DBB2181C00F0C4F8BC1DBB1D1B88181C60
S11337700A21FEF741FE031C2380BB1D1B88181C75
S11337800A21FEF77DFE0B1C9BB2DBB2181C00F075
S1133790D5F8BC1DBB1D1B88181C0A21FEF72CFE86
S11337A0031C2380BB1D1B88181C0A21FEF768FE1E
S11337B00B1C9BB2DBB2181C00F0E6F8BB1D1B8887
S11337C0642B15D9BC1DBB1D1B88181C0A21FEF7D0
S11337D013FE031C2380BB1D1B88181C0A21FEF743
S11337E04FFE0B1C9BB2DBB2181C00F0F3F80BE08D
S11337F0BB1D1B88181C0A21FEF7FEFD031C9BB28F
S1133800DBB2181C00F0E6F8BD4603B090BDC0461C
S113381090B583B000AF021CFB1D1A70FB1D1B7812
S1133820181C0A21FEF72CFE0B1CDBB2181C00F03E
S1133830ABF8FB1D1B78642B14D9FC1DFB1D1B78F6
S1133840181C0A21FEF7D8FD031C2370FB1D1B78EE
S1133850181C0A21FEF714FE0B1CDBB2181C00F026
S1133860B9F80AE0FB1D1B78181C0A21FEF7C4FDF9
S1133870031CDBB2181C00F0ADF8BD4603B090BDCC
S113388090B583B000AF021CFB1D1A70FB1D1B78A2
S1133890181C0A21FEF7F4FD0B1CDBB2181C00F007
S11338A027F8FB1D1B78642B14D9FC1DFB1D1B780A
S11338B0181C0A21FEF7A0FD031C2370FB1D1B78B6
S11338C0181C0A21FEF7DCFD0B1CDBB2181C00F0EF
S11338D035F80AE0FB1D1B78181C0A21FEF78CFD45
S11338E0031CDBB2181C00F029F8BD4603B090BDE0
S11338F080B582B000AF021CFB1D1A7010E0FB1DE6
S11339001B78181C0A21FEF777FD031CDBB20A2280
S113391052425343D9B2FB1DFA1D12788A181A7009
S1133920FB1D1B78092BEAD8034BFA1D12781A7079
S1133930BD4602B080BDC04601F0FF1F80B582B015
S113394000AF021CFB1D1A7010E0FB1D1B78181C35
S11339500A21FEF751FD031CDBB20A2252425343F3
S1133960D9B2FB1DFA1D12788A181A70FB1D1B7838
S1133970092BEAD8034BFA1D12781A70BD4602B01F
S113398080BDC04602F0FF1F80B582B000AF021CAC
S1133990FB1D1A7010E0FB1D1B78181C0A21FEF792
S11339A02BFD031CDBB20A2252425343D9B2FB1D46
S11339B0FA1D12788A181A70FB1D1B78092BEAD895
S11339C0034BFA1D12781A70BD4602B080BDC04682
S11339D003F0FF1F80B582B000AF021CFB1D1A70FC
S11339E010E0FB1D1B78181C0A21FEF705FD031CC3
S11339F0DBB20A2252425343D9B2FB1DFA1D12789C
S1133A008A181A70FB1D1B78092BEAD8034BFA1D80
S1133A1012781A70BD4602B080BDC04604F0FF1F84
S1133A2080B500AF074B1B78DBB21A1C0F23134081
S1133A30DBB210221343DBB2DBB2181CFFF764FEC7
S1133A40BD4680BD01F0FF1F80B500AF074B1B785A
S1133A50DBB21A1C0F231340DBB220221343DBB268
S1133A60DBB2181CFFF750FEBD4680BD02F0FF1FFD
S1133A7080B500AF074B1B78DBB21A1C0F23134031
S1133A80DBB240221343DBB2DBB2181CFFF73CFE6F
S1133A90BD4680BD03F0FF1F80B500AF084B1B7807
S1133AA0DBB21A1C0F231340DBB2802252421343B1
S1133AB0DBB2DBB2181CFFF727FEBD4680BDC04653
S1133AC004F0FF1F80B500AF114B1B780133DAB24D
S1133AD00F4B1A700E4B1B78022B0BD002DC012B00
S1133AE005D00FE0032B08D0042B09D00AE0FFF720
S1133AF097FF0BE0FFF7A8FF08E0FFF7B9FF05E029
S1133B00FFF7CAFF024B00221A70C046BD4680BDB3
S1133B103FF0FF1F90B585B000AF021CFB1D1A706B
S1133B203B1C0F3300221A70FB1D1B78002B07D19E
S1133B303C1C0F34002003F01BFC031C237028E002
S1133B40FB1D1B78012B07D13C1C0F34002003F014
S1133B504FFC031C23701CE0FB1D1B78022B04D1BB
S1133B603B1C0F3301221A7013E0FB1D1B78032B3F
S1133B7004D13B1C0F3301221A700AE0FB1D1B7891
S1133B80042B06D13C1C0F34002002F073FC031CF0
S1133B9023703B1C0F331B78002B04D13B1C0F33C9
S1133BA001221A7003E03B1C0F3300221A703B1CE5
S1133BB00F331B78181CBD4605B090BD80B582B08C
S1133BC000AF012002F0B0F8031C1A1CBB1D1A80C0
S1133BD0044B181C02F0CCF8BB1D1B88181CBD46F6
S1133BE002B080BD2805002080B500AFFFF7E6FFD6
S1133BF00B4B1A880B4B1A800A4B1B88181C0A2182
S1133C00FEF7FAFB031C9AB2064B1B88D3189AB230
S1133C10044B1A80034B1B88181CBD4680BDC0464C
S1133C202805002006F0FF1F80B500AFFFF7C6FF90
S1133C30044B1A88044B1A80034B1B88181CBD467E
S1133C4080BDC0462805002008F0FF1F98B500AFCE
S1133C50FFF7B4FF0B4B1A880B4B1A800A4B1C88D6
S1133C60094B1B88181C0A21FEF7C6FB031C9BB2D8
S1133C70E31A9AB2044B1A80034B1B88181CBD46E6
S1133C8098BDC046280500200AF0FF1F80B500AF8C
S1133C90FFF794FF0B4B5A880B4B1A800A4B1B8877
S1133CA0181C0A21FEF7A8FB031C9AB2064B1B88BA
S1133CB0D3189AB2044B1A80034B1B88181CBD46B8
S1133CC080BDC046280500200CF0FF1F80B500AF62
S1133CD0FFF774FF044B5A88044B1A80034B1B886C
S1133CE0181CBD4680BDC046280500200EF0FF1FED
S1133CF098B500AFFFF762FF0B4B5A880B4B1A8045
S1133D000A4B1C88094B1B88181C0A21FEF774FBFC
S1133D10031C9BB2E31A9AB2044B1A80034B1B8810
S1133D20181CBD4698BDC0462805002010F0FF1F92
S1133D3090B583B000AFFFF741FF3A4B3B60BB1D2A
S1133D4000221A80384B1A88384B1B889A4203D8B1
S1133D50BB1D00221A805EE0334B1A88344B1B884B
S1133D609A4204D3BB1D012252421A8053E02E4BC7
S1133D701A88304B1B889A4225D82B4B1B881A1C57
S1133D802A4B1B88D31A181CFFF742F9041C294B31
S1133D901B881A1C254B1B88D31A181CFFF738F9EB
S1133DA0031C201C191CFEF729FC031C181C2249A7
S1133DB0FEF730FE031C3B60BC1D3868FEF706FCB2
S1133DC0031C238027E0184B1B881A1C194B1B88E3
S1133DD0D31A181CFFF71CF9041C154B1B881A1C5A
S1133DE0144B1B88D31A181CFFF712F9031C201C50
S1133DF0191CFEF703FC031C181C1049FEF70AFEED
S1133E00031C3B603868FEF7E1FB031C9AB2BB1D40
S1133E100B4952181A80BB1D1B88181CBD4603B0E1
S1133E2090BDC046000000002805002006F0FF1FDA
S1133E300AF0FF1F08F0FF1F00FEFF4600000047C6
S1133E40FF7F000090B583B000AFFFF7B7FE3A4B99
S1133E503B60BB1D00221A80384B5A88384B1B88A4
S1133E609A4203D8BB1D00221A805EE0334B5A8865
S1133E70344B1B889A4204D3BB1D012252421A8040
S1133E8053E02E4B5A88304B1B889A4225D82B4B33
S1133E905B881A1C2A4B1B88D31A181CFFF7B8F826
S1133EA0041C294B1B881A1C254B1B88D31A181C6D
S1133EB0FFF7AEF8031C201C191CFEF79FFB031C24
S1133EC0181C2249FEF7A6FD031C3B60BC1D386884
S1133ED0FEF77CFB031C238027E0184B5B881A1C2D
S1133EE0194B1B88D31A181CFFF792F8041C154BA6
S1133EF01B881A1C144B1B88D31A181CFFF788F84C
S1133F00031C201C191CFEF779FB031C181C104908
S1133F10FEF780FD031C3B603868FEF757FB031C6B
S1133F209AB2BB1D0B4952181A80BB1D1B88181C62
S1133F30BD4603B090BDC046000000002805002027
S1133F400CF0FF1F10F0FF1F0EF0FF1F00FEFF46D6
S1133F5000000047FF7F000090B585B000AF021C51
S1133F60BB1D1A80164B1B881A1C164B1B88D31AB0
S1133F70181CFFF74DF8041CBB1D1B88181CFFF709
S1133F809FF8031C201C191CFEF744FD031C181C7D
S1133F900D49FEF733FB031CFB60F868FEF716FBC4
S1133FA0031C99B2074B1A883B1C0A338A181A80DF
S1133FB03B1C0A331B88181CBD4605B090BDC04687
S1133FC066AA000064AA000000FF7F4780B582B0A3
S1133FD000AF021CBB1D1A800F4B1B88BA1D128830
S1133FE09A4204D2BB1D0C4A12881A8009E00B4B7A
S1133FF01B88BA1D12889A4203D9BB1D074A12882E
S11340001A80074BDA69BB1D1B88101C191C03F0AE
S1134010C3FCBD4602B080BD64AA000066AA0000CD
S113402084F0FF1F80B582B000AF021CBB1D1A8054
S1134030154B1B88BA1D12889A4204D2BB1D124A22
S113404012881A8009E0114B1B88BA1D12889A4203
S113405003D9BB1D0D4A12881A800C4B1A88BB1D4C
S11340601B88D31A99B2084B1A88BB1D8A181A8068
S1134070074B5A69BB1D1B88101C191C03F0AEFBAF
S1134080BD4602B080BDC04664AA000066AA000016
S113409084F0FF1F80B500AFFFF74AFE031C181C15
S11340A0FFF75AFF031C181CBD4680BD80B500AF46
S11340B0FFF7C8FE031C181CFFF74EFF031C181C57
S11340C0BD4680BD80B500AF00F0E8F8FFF7EEFF15
S11340D0031C181C00F096F8031C181CFFF7A2FF21
S11340E0FFF7D8FF031C181C00F03EF8031C181C33
S11340F0FFF76CFFBD4680BD80B500AF054B5B6923
S1134100181C03F037FB034BDB69181C03F010FC8D
S1134110BD4680BD84F0FF1F80B500AF054B5B69D1
S1134120181C03F03FFB034BDB69181C03F018FC5D
S1134130BD4680BD84F0FF1F80B500AF084B5A69AF
S1134140084B1B88101C191C03F048FB044BDA694C
S1134150044B1B88101C191C03F01EFCBD4680BDBB
S113416084F0FF1F68AA000080B582B000AF021C73
S1134170BB1D1A80214B1B78062B34D89A00204B88
S1134180D3181B689F4600F0EFF8012000F0CCF82C
S1134190BB1DBA1D12881432FF321A8027E000F0CA
S11341A0E3F8012000F0B0F8BB1DBA1D1288E13A13
S11341B01A801CE0012000F0B7F8002000F0A4F8F9
S11341C0BB1DBA1D12881432FF321A800FE0002082
S11341D000F0AAF8012000F097F8BB1DBA1D128860
S11341E0E13A1A8003E000F0BFF800E0C046BB1DCE
S11341F01B88181CBD4602B080BDC04640F0FF1F9E
S11342006CAA000080B582B000AF021CBB1D1A80EE
S1134210204B1B78062B34D89A001F4BD3181B68ED
S11342209F4600F0A1F8012000F04EF8BB1DBA1D16
S11342301288143AFF3A1A8026E000F095F801201B
S113424000F052F8BB1DBA1D1288E1321A801BE03F
S1134250002000F049F8012000F036F8BB1DBA1D1B
S11342601288143AFF3A1A800EE0012000F03CF85C
S1134270002000F029F8BB1DBA1D1288E1321A8013
S113428002E0C04600E0C046BB1D1B88181CBD46AA
S113429002B080BD40F0FF1F88AA000080B500AFC7
S11342A000F05EF9031C1A1C054B1B78101C191C2A
S11342B0FEF7F0F8031CDAB2024B1A70BD4680BD5B
S11342C06AAA000040F0FF1F80B582B000AF021C54
S11342D0FB1D1A70FB1D1B780020191C03F070F9DC
S11342E0BD4602B080BDC04680B582B000AF021C9E
S11342F0FB1D1A70FB1D1B780020191C03F0AAF982
S1134300BD4602B080BDC04680B582B000AF021C7D
S1134310FB1D1A70FB1D1B780020191C03F0E4F927
S1134320BD4602B080BDC04680B582B000AF021C5D
S1134330FB1D1A70FB1D1B780020191C03F0F6F8F6
S1134340BD4602B080BDC04680B500AF0120FFF776
S1134350BBFF0120FFF7C8FF0120FFF7D5FF0120B5
S1134360FFF7E2FFBD4680BD80B500AF0020FFF738
S1134370ABFF0020FFF7B8FF0020FFF7C5FF0020C8
S1134380FFF7D2FFBD4680BD80B584B000AF786032
S113439004F00CFE031CBB600123FB603A1C0832D2
S11343A0FB68101C191C04F0B5FCFEF77BFFF5E755
S11343B080B582B000AF7860FEF782FF0C2004F075
S11343C005FDF9E780B584B000AF786004F0EEFD38
S11343D0031CBB60FA235B00FB603A1C0832FB68D9
S11343E0101C191C04F096FCFEF7A2FFF5E7C0466A
S11343F080B584B004AF1F4A1F4B002100910021F7
S113440001910021029100210391101C191C7822B2
S1134410002304F0B9FB031C012B00D0FEE7174A6C
S1134420174B0021009100210191002102910021EC
S11344300391101C191C7822002304F0A5FB031C13
S1134440012B00D0FEE70F4A0F4B00210091002101
S113445001910021029100210391101C191C782262
S1134460002304F091FB031C012B00D0FEE7BD46A2
S113447080BDC046B14300007CA900008943000010
S113448090A90000C5430000A4A9000080B500AFB6
S113449000F04EF8BD4680BD80B500AF144B1B78CC
S11344A0012B22D1134B1B8801339AB2114B1A8072
S11344B0114B1B780133DAB20F4B1A700E4B1B7879
S11344C03B2B12D90D4B1B780133DAB20B4B1A700C
S11344D0094B00221A70094B1B781A1C084B1B78D5
S11344E0013B9A4201DD00F019F8BD4680BDC0468B
S11344F046F0FF1F42F0FF1F44F0FF1F45F0FF1F6F
S1134500A4AA000080B500AF00F012F8024B01220B
S11345101A70BD4680BDC04646F0FF1F80B500AF8F
S1134520024B00221A70BD4680BDC04646F0FF1FF4
S113453080B500AF064B00221A80064B00221A7089
S1134540054B00221A70054B00221A70BD4680BD2F
S113455042F0FF1F44F0FF1F45F0FF1F46F0FF1F0E
S113456080B500AF024B1B88181CBD4680BDC046F9
S113457042F0FF1F80B500AF024B1B78181CBD46EC
S113458080BDC04644F0FF1F80B500AF024B1B78CE
S1134590181CBD4680BDC04645F0FF1F80B582B0E3
S11345A000AF021CFB1D1A700B4B00221A71C0468F
S11345B0094B1A68FB1D101C191C012201F068FC30
S11345C0031CF5D1C046044B1B79DBB2002BFAD097
S11345D0BD4602B080BDC04648F0FF1F80B582B022
S11345E000AF786007E07B681B787A6801327A60F4
S11345F0181CFFF7D3FF7B681B78002BF3D1BD4653
S113460002B080BD80B582B000AF78607B68181CB2
S1134610FFF7E4FF034B181CFFF7E0FFBD4602B0B1
S113462080BDC046B4A9000090B587B000AF021C9D
S1134630FB1D1A703B1C173300221A703B1C1633E7
S113464000221A700DE03B1C16331B783A1C0C3206
S11346500021D1543B1C16333A1C16321278013215
S11346601A703B1C16331B78002BECD03B1C163302
S113467000221A7068E03B1C16331B78DB08DBB29F
S11346803A1C0C32D35C1A1C3B1C163319780723D2
S11346900B40DA40012313404FD13B1C16331A78E8
S11346A02F4B9200D3581B683B613B691B683A1C33
S11346B016321178FA1D1278081C111C9847031C35
S11346C0191C3B1C17333A1C173212780A431A7010
S11346D03B1C15333A1C163212781A7028E03B1C26
S11346E015331A781E4B9200D3581A683B699A42C4
S11346F017D13B1C15331B78DB08DBB21A1C391CA1
S11347000C31C95C3B1C1533187807230340012086
S1134710041C9C40231CDBB20B43D9B23B1C0C335E
S113472099543B1C15333A1C1532127801321A7015
S11347303B1C15331B78002BD1D03B1C16333A1C81
S11347401632127801321A703B1C16331B78002B78
S113475091D03B1C17331B78181CBD4607B090BD85
S1134760ACAA000080B584B000AF78603B1C0F3366
S113477000221A707B6800221A607B6800225A604B
S11347807B681B68C02212041A437B681A603B1CB6
S11347900F331B78181CBD4604B080BD80B584B0AF
S11347A000AF78603B1C0F3300221A707B681B68D3
S11347B08022191C91430A1C7B681A607B681B6861
S11347C01A1C0F4B1A407B681A603B1C0E330D4AAF
S11347D052791A707B681B681A1C3B1C0E331B78B9
S11347E0013B1902F8235B010B401A437B681A60F2
S11347F03B1C0F331B78181CBD4604B080BDC0465B
S1134800FFE0FFFF6C05002080B584B000AF786046
S113481039603B1C0F3300221A703B681B688022EE
S1134820191C91430A1C3B681A607B685B7B012B53
S11348301FD1174B5B889AB2402313409BB2002BC5
S113484006D03B681B6820221A433B681A6007E0C5
S11348503B681B682022191C91430A1C3B681A60A0
S11348603B1C0F333A1C0F32127801210A431A7091
S113487007E03B681B682022191C91430A1C3B6813
S11348801A603B1C0F331B78181CBD4604B080BD56
S11348906C05002080B586B000AFF860B9607A601E
S11348A03B1C163300221A70874B5B889AB2802314
S11348B013409BB2002B07D1834B5B889AB24023F1
S11348C013409BB2002B03D0BB6800229A805FE0A8
S11348D03B1C173300221A7055E03B1C17331A781F
S11348E07A4B9200D3581A68FB689A4244D13B1C15
S11348F017331B78DB08DBB2754AD35C1A1C3B1CEC
S11349001733197807230B40DA400123134033D1BE
S11349103B1C17331A786D4B9200D2583B1C15334D
S1134920127A1A70BB689B889BB23A1C15321278B3
S11349300121081C9040021C92B213409BB2002B30
S11349401AD07B681B688022191C91430A1C7B685F
S11349501A60BB689B889BB29BB23A1C15321278D2
S11349600121081C9040021C92B2D24392B213401F
S11349709BB29AB2BB689A803B1C17333A1C17321D
S1134980127801321A703B1C17331B78002BA4D009
S11349903B1C173300221A7089E03B1C17331A782A
S11349A04A4B9200D3581A68FB689A4200D077E0C9
S11349B0454B5B889AB2802313409BB2002B07D1EE
S11349C0414B5B889AB2402313409BB2002B21D009
S11349D03D4B9B7ADBB23A1C173212789A425FD174
S11349E03B1C17331A78394B9200D2583B1C1533B1
S11349F0127A1A70BB689B889AB23B1C15331B78D9
S1134A000121081C9840031C9BB213439AB2BB6853
S1134A109A8045E03B1C17331B78DB08DBB22C4A39
S1134A20D35C1A1C3B1C1733197807230B40111C49
S1134A30D9400B1C1A1C01231340DBB2002B2FD0CE
S1134A403B1C17331A78214B9200D2583B1C153368
S1134A50127A1A70BB689B889BB23A1C1532127882
S1134A600121081C9040021C92B213409BB2002BFF
S1134A7016D17B681B688022191C91430A1C7B6831
S1134A801A60BB689B889AB23B1C15331B780121C2
S1134A90081C9840031C9BB213439AB2BB689A80CB
S1134AA03B1C17333A1C1732127801321A703B1C24
S1134AB017331B78002B00D16FE73B1C16331B7890
S1134AC0181CBD4606B080BD6C050020ACAA0000D1
S1134AD0E005002080B58EB000AFF860B9607A6060
S1134AE03B1C373300221A70FB681B681A1CE02336
S1134AF01B0213405B0BDAB23B1C10331A70FB68C9
S1134B001B681A1CE023DB0213401B0CDAB23B1CAB
S1134B1010335A70D24B5B889AB2802313409BB2F5
S1134B20002B11D03B1C28338022D2001A803B1C5E
S1134B30273308221A703B1C263307221A703B1CA9
S1134B40353300221A7010E03B1C28338022D20037
S1134B501A803B1C273308221A703B1C2633072279
S1134B601A703B1C353300221A703B1C1C33012283
S1134B7052425A803B1C1833012252425A803B1C39
S1134B802B3300221A70FB68B64A9A60FB681B68D4
S1134B908022191C91430A1CFB681A60FB681B687D
S1134BA04022191C91430A1CFB681A60FB681B68AD
S1134BB01022191C91430A1CFB681A60FB681B68CD
S1134BC080221A43FB681A603B1C22337A6892885D
S1134BD01A803B1C34333A1C2732127852081A705C
S1134BE03B1C2F3300221A703B1C14330122524207
S1134BF05A803B1C253300221A703B1C2F333A1C6D
S1134C002F32127801321A703B1C333301221A708E
S1134C103B1C2C3300221A803B1C363300221A70B2
S1134C208EE03B1C22331A883B1C36331B78111C44
S1134C30D9400B1C1A1C01231340DBB2002B00D1FA
S1134C4077E0FB681B681A1C874B1A40FB681A60E4
S1134C50FB681B681A1C3B1C35331B785B031B0465
S1134C601B0C1A43FB681A60FB681B681A1C7F4BF9
S1134C701A40FB681A60FB681B681A1C3B1C34331F
S1134C801B781904E023DB020B401A43FB681A600B
S1134C90FB685B681B011A09FB685A60FB685B6868
S1134CA01A1C3B1C36331B781B071A43FB685A60DB
S1134CB0FB685B688022D2031A43FB685A60FB6876
S1134CC01B681A1C04231340F9D0FB681B680422D8
S1134CD01A43FB681A60C046C046FB685B681A1C2E
S1134CE03B1C30331A803A1C30323B1C2833128868
S1134CF01B889A4203D23B1C333300221A703B1C9C
S1134D002C331B88002B06D13B1C2C333A1C30322D
S1134D1012881A800DE03B1C2C331B885B0899B267
S1134D203B1C30331B885B089AB23B1C2C338A181B
S1134D301A803B1C36333A1C3632127801321A7010
S1134D403B1C36331B780F2B00D86AE73A1C2C32F5
S1134D503B1C283312881B889A420AD93B1C3033E7
S1134D60391C2C313A1C2832098812888A1A1A8074
S1134D7009E03B1C3033391C28313A1C2C32098899
S1134D8012888A1A1A803B1C33331B78012B2ED1CC
S1134D903A1C2C323B1C283312881B889A420CD8AC
S1134DA03B1C25331B78002B21D03B1C14335B8820
S1134DB03A1C303212889A4219D83B1C14333A1CDC
S1134DC0343212785A703B1C14333A1C3532127840
S1134DD01A703B1C14333A1C303212885A803B1C24
S1134DE025333A1C2532127801321A701EE03B1C1E
S1134DF014335B883A1C303212889A4216D83B1C12
S1134E0025331B78002B11D13B1C14333A1C34324C
S1134E1012785A703B1C14333A1C353212781A70CB
S1134E203B1C14333A1C303212885A803B1C3333F7
S1134E301B78012B1CD13B1C27331B785B08DBB28E
S1134E401A1C3B1C2F331B78111CD9400B1CD9B2E4
S1134E503B1C34333A1C343212788A181A701BE023
S1134E606C0500200000FFFFFF1FFFFFFFFFF8FF9E
S1134E703B1C27331B785B08DBB21A1C3B1C2F330B
S1134E801B78111CD9400B1CDAB23B1C3433391C7F
S1134E90343109788A1A1A703B1C27331B785B0853
S1134EA0DBB21A1C3B1C2F331B78111CD9400B1C82
S1134EB000D0A2E63B1C1C335A883B1C14335B888D
S1134EC09A421ED33B1C25331B78002B19D03B1C64
S1134ED014331A783B1C1C331A703B1C14335A7855
S1134EE03B1C1C335A703B1C14335A883B1C1C3328
S1134EF05A803B1C2B333A1C2B32127801321A7025
S1134F001EE03B1C18335A883B1C14335B889A42BE
S1134F1016D33B1C2B331B78002B11D13B1C1433B1
S1134F201A783B1C18331A703B1C14335A783B1CF8
S1134F3018335A703B1C14335A883B1C18335A805C
S1134F403B1C35333A1C3532127801321A703B1C43
S1134F5035331A783B1C26331B7801339A4200D22E
S1134F6037E63B1C2B331B78002B05D07B683A1C9F
S1134F7028321288DA8037E03B1C18331A783B1C3D
S1134F801C331A703B1C18335A783B1C1C335A7060
S1134F903B1C2F3300221A703B1C18335A883B1CCD
S1134FA03033391C283109888A1A1A8006E03B1CE0
S1134FB02F333A1C2F32127801321A703B1C3033D3
S1134FC01A883B1C2F331B78111C19410B1CEED182
S1134FD03B1C2F331B78013BDBB20122111C99408F
S1134FE00B1C9AB27B68DA80FB681B688022191C50
S1134FF091430A1CFB681A60FB681B681A1C2A4B45
S11350001A40FB681A60FB681B681A1C3B1C1C33A3
S11350101B785B031B041B0C1A43FB681A60FB68B8
S11350201B681A1C214B1A40FB681A60FB681B683A
S11350301A1C3B1C1C335B781904E023DB020B4075
S11350401A43FB681A601A4B5B889AB28023134098
S11350509BB2002B09D03B1C1C335A883B1C2833C1
S11350601B88D3189AB2134B1A803B1C10331A783E
S11350703B1C1C331B789A4207D13B1C10335A78D3
S11350803B1C1C335B789A4207D03B1C37333A1CD9
S11350903732127810210A431A703B1C37331B78BD
S11350A0181CBD460EB080BDFF1FFFFFFFFFF8FFB9
S11350B06C0500200206002080B584B000AF786043
S11350C039603B1C0F3300221A703B681B68802236
S11350D0191C91430A1C3B681A603B681B684022F8
S11350E0191C91430A1C3B681A603B68374A9A6052
S11350F07B685B7B012B61D13B1C0E33344A927A73
S11351001A703B1C0E331B78002B57D13B1C0E33FB
S11351101A78304B9200D3581A687B689A424DD162
S11351203B681B681022191C91430A1C3B681A60D7
S11351303B685B681B011A093B685A603B685B6803
S11351401A1C3B1C0E331978224B8900CB581B7A4E
S11351501B071A433B685A603B681B6880221A434A
S11351603B681A603B685B688022D2031A433B6841
S11351705A603B681B681A1C04231340F9D0C046CC
S1135180C0463B685B681A1C3B1C0C331A803B1CF2
S11351900B330F4AD27A1A703B1C0C331A883B1C0F
S11351A00B331B78D3181A043B689A603B1C0F33EB
S11351B03A1C0F32127802210A431A703B1C0F3337
S11351C01B78181CBD4604B080BDC0460000FFFF1C
S11351D06C050020ACAA000080B588B000AFF86070
S11351E0B9607A603B1C1F3300221A70654BBB61A7
S11351F0FB681B688022181C9043021CFB681A6021
S1135200614B1B7BDAB203231340DBB2002B0ED1BC
S1135210FB681B6810221A43FB681A603B1C1F338F
S11352203A1C1F32127808210A431A700FE0FB68F7
S11352301B681022191C91430A1CFB681A603B1C52
S11352401F333A1C1F32127804210A431A70FB6878
S11352501B6840221A43FB681A60FB681B688022A3
S113526052051A43FB681A60BA69C0235B00D3581D
S11352701A1C7B681B7B191C1F230B400121081C73
S11352809840031C111C1943BA69C0235B00D15018
S1135290BB691B681A1C7B681B7B191C1F230B40F2
S11352A00121081C9840031C1A43BB691A60BB689F
S11352B000221A70BB6800229A70334B5B889AB242
S11352C0402313409BB2002B54D07B685B7B012BA3
S11352D050D1FB689B681B0C1A042C4B9A4218D0C3
S11352E0FB685B681B011A09FB685A603B1C173397
S11352F0254A927A1A70FB685B681A1C3B1C1733A8
S11353001978234B8900CB581B7A1B071A43FB6877
S11353105A60FB681B6810221A43FB681A60FB681A
S11353201B681A1C1B4B1A40FB681A60FB681B683D
S113533040221A43FB681A60FB681B6880221A43E8
S1135340FB681A603B1C1F333A1C1F321278012180
S11353500A431A703B1C1F333A1C1F321278042173
S11353608A431A703B1C1F333A1C1F3212780821DF
S11353708A431A703B1C1F331B78181CBD4608B0A7
S113538080BDC04600E100E06C0500200000FFFF86
S1135390ACAA0000FFFFFFEF80B588B000AF0A1C85
S11353A0FB1D011C1970BB1D1A703B1C1F3300220E
S11353B01A70FB1D1A78D04B9200D358BB61BB699D
S11353C01B687B617B695B683B61BB695B68FB60F5
S11353D0BB1D1B78052B1BD1FB689B78DBB2012B13
S11353E000D082E1FB6800221A70FB6802229A70E6
S11353F03B695B688022D2031A433B695A603B1CB9
S11354001F333A1C1F32127804210A431A706CE1CC
S1135410BB1D1B78012B6BD13B69181CFFF7A2F94C
S1135420031C191C3B1C1F333A1C1F3212780A43FD
S11354301A703B69181CFFF7B1F9031C191C3B1CBB
S11354401F333A1C1F3212780A431A707A693B6977
S1135450101C191CFFF7D8F9031C191C3B1C1F3323
S11354603A1C1F3212780A431A707969FA683B6948
S1135470081C111C1A1CFFF70DFA031C191C3B1CF9
S11354801F333A1C1F3212780A431A7039697A6939
S1135490FB68081C111C1A1CFFF71CFB031C191CBD
S11354A03B1C1F333A1C1F3212780A431A707A6964
S11354B03B69101C191CFFF7FFFD031C191C3B1C46
S11354C01F333A1C1F3212780A431A703969FA687A
S11354D07B69081C111C1A1CFFF77EFE031C191C97
S11354E03B1C1F333A1C1F3212780A431A70FCE02B
S11354F0BB1D1B78032B3ED13B69181CFFF74EF9EB
S1135500031C191C3B1C1F333A1C1F3212780A431C
S11355101A7039697A69FB68081C111C1A1CFFF798
S1135520D9FA031C191C3B1C1F333A1C1F32127876
S11355300A431A707A693B69101C191CFFF7BCFDF9
S1135540031C191C3B1C1F333A1C1F3212780A43DC
S11355501A703969FA687B69081C111C1A1CFFF758
S11355603BFE031C191C3B1C1F333A1C1F321278D0
S11355700A431A70B9E0BB1D1B78062B2FD17A6938
S11355803B69101C191CFFF73FF9031C191C3B1C39
S11355901F333A1C1F3212780A431A707A693B6926
S11355A0101C191CFFF788FD031C191C3B1C1F331E
S11355B03A1C1F3212780A431A703969FA687B69F7
S11355C0081C111C1A1CFFF707FE031C191C3B1CAA
S11355D01F333A1C1F3212780A431A7085E0BB1D30
S11355E01B78072B20D17A693B69101C191CFFF723
S11355F00BF9031C191C3B1C1F333A1C1F32127875
S11356000A431A703969FA687B69081C111C1A1C50
S1135610FFF7E2FD031C191C3B1C1F333A1C1F320D
S113562012780A431A7060E0BB1D1B78082B31D135
S113563039697A69FB68081C111C1A1CFFF74AFABD
S1135640031C191C3B1C1F333A1C1F3212780A43DB
S11356501A707A693B69101C191CFFF72DFD031C95
S1135660191C3B1C1F333A1C1F3212780A431A7050
S11356703969FA687B69081C111C1A1CFFF7ACFD18
S1135680031C191C3B1C1F333A1C1F3212780A439B
S11356901A702AE0BB1D1B78022B11D17969FA68B4
S11356A03B69081C111C1A1CFFF7F4F8031C191C95
S11356B03B1C1F333A1C1F3212780A431A7014E041
S11356C0BB1D1B78042B10D13969FA687B69081C4F
S11356D0111C1A1CFFF780FD031C191C3B1C1F33F3
S11356E03A1C1F3212780A431A703B1C1F331B7872
S11356F0181CBD4608B080BDACAA000080B584B0BB
S113570000AF786039603B689A687B681B7A5B00FD
S1135710D3181A88294B1A80284B1B881A1C284B2B
S11357201B8828494B4328495B185B0C9BB22749CB
S1135730CB1A9A4204DD3B1C0F3306221A7035E063
S11357401E4B1B881A1C1E4B1B881E494B431E49AB
S11357505B181B0C9BB21D49CB1A9A4204DD3B1CFF
S11357600F3304221A7021E0154B1B88184A534347
S11357705B0C9AB2114B1B889A4204D93B1C0F3321
S113578007221A7012E00E4B1B88114A53431B0C5C
S11357909AB20A4B1B889A4204D93B1C0F3303224A
S11357A01A7003E03B1C0F3300221A703B1C0F33AA
S11357B01B78181CBD4604B080BDC04602060020FC
S11357C058F0FF1FCDCCFFFFCDCC3233FFFF0000DC
S11357D03333000080B586B000AFF860B9607A60FA
S11357E01A1CFB1C1A703A4B1B7BDAB203231340BE
S11357F0DBB2012B29D1FB681B78DBB2012B1FD054
S1135800FB68FA1C12785A707B685B681B011A09E2
S11358107B685A607B685B681A1CFB1C1B781B073F
S11358201A437B685A60FB6800221A70FB680222E4
S11358309A707B685B688022D2031A437B685A6043
S11358403B1C173301221A703BE0FB68FA1C1278E8
S11358505A70FB6801229A707B685B681B011A0905
S11358607B685A607B685B681A1CFB1C1B781B07EF
S11358701A437B685A60164B1B7BDAB2032313402E
S1135880DBB2002B19D1FB681B78DBB2022B0CD1E5
S11358903B1C173305221A707B681B688022191C75
S11358A091430A1C7B681A6003E03B1C17330122F6
S11358B01A70FB6800221A7003E03B1C17330122A4
S11358C01A703B1C17331B78181CBD4606B080BDEC
S11358D06C05002090B589B000AF0A1CFB1D011CAB
S11358E01970BB1D1A70FB1D1A78624B9200D358B5
S11358F0BB61BB691B687B617B695B683B61BB699E
S11359005B68FB603B1C0B33BA69127A1A70BB1DCF
S11359101B78012B22D13B691B681A1C802313407E
S113592005D13B691B6880221A433B691A60FB68F6
S11359309B78DBB2002B0CD13C1C1F34F8687969CE
S11359403A693B1C0B331B78FFF744FF031C23709D
S113595089E03B1C1F3301221A7084E0BB1D1B78B5
S1135960022B35D13B691B681A1C8023134005D1D7
S11359703B691B6880221A433B691A60FB689B7869
S1135980DBB2002B1FD1FB681B78DBB2002B0DD0E0
S1135990FB6803221A703C1C1F34BA697B69101C13
S11359A0191CFFF7ABFE031C23705CE03C1C1F3486
S11359B0F86879693A693B1C0B331B78FFF70AFFD7
S11359C0031C23704FE03B1C1F3301221A704AE072
S11359D0BB1D1B78042B0BD13B1C0A33FA1D127818
S11359E01A703B1C1F333A1C0A3212781A703AE0C0
S11359F0BB1D1B78032B24D13C1C1F34FB1D1B78BF
S1135A00181C0821FFF7C8FC031C23703B1C1F3320
S1135A101A782023134004D03B1C1F3306221A702B
S1135A2021E03B1C1F331A781023134004D03B1C85
S1135A301F3302221A7016E03B1C1F3300221A7017
S1135A4011E0BB1D1B78052B0DD13C1C1F34FB1D25
S1135A501B78181C0221FFF79FFC031C23703B1CBE
S1135A601F3300221A703B1C1F331B78181CBD46C1
S1135A7009B090BDACAA000090B585B000AF634BEF
S1135A805B68BB60624B5B889AB2402313409BB255
S1135A90002B25D0BB681B68802212061A43BB6802
S1135AA01A60BB681B68802252051A43BB681A60DF
S1135AB0BB681B684022191C91430A1CBB681A600E
S1135AC0BC1D0120FCF724FC031C2380BB1D1B8888
S1135AD0402293439BB20120191CFCF7F9FA8FE092
S1135AE0BB681B6804221A43BB681A60494B1B78C5
S1135AF0DBB2002B00D080E0BB681B681022191CAD
S1135B0091430A1CBB681A60BB685B681A0F3B1C94
S1135B100F331A703D4B9A683B1C0F331B785B00A4
S1135B20D218BB685B689BB21380BB1D394A92884C
S1135B301A803B1C0E3312221A703B1C0F331B7845
S1135B400E2B07D83B1C0F333A1C0F32127801324C
S1135B501A7003E03B1C0F3300221A703B1C0E33F7
S1135B603A1C0E321278013A1A703B1C0F331B7820
S1135B700122111C99400B1C9BB2BA1D12881340C0
S1135B809BB2002B04D13B1C0E331B78002BD4D1C9
S1135B90204B5B78DBB23A1C0F3212789A4214D154
S1135BA01C4B01221A701B4B00229A70184B1B7B52
S1135BB0DAB203231340DBB2002B21D1BB681B688C
S1135BC010221A43BB681A601AE0BB685B681B01A9
S1135BD01A09BB685A60BB685B681A1C3B1C0F330C
S1135BE01B781B071A43BB685A60BB685B6880223A
S1135BF0D2031A43BB685A6002E0064B02221A70B1
S1135C00054B01221A70BD4605B090BDB0AA000034
S1135C106C05002050F0FF1F3005002080B582B0D5
S1135C2000AF0A1CBB1D011C19807B1D1A70BB1D13
S1135C3019887B1D1A78074B5200D35A1A1C131C5F
S1135C405B009B18CB189B089BB2181CBD4602B086
S1135C5080BDC046A405002080B582B000AF786046
S1135C60FEE7C04680B500AF054A064BD31A054A85
S1135C70101C00211A1C03F088FDBD4680BDC046DF
S1135C800406002038F0FF1F04F046FE00F00EFC6E
S1135C90FFF7E8FF04F01CFE04F0B6FD04F04AFE32
S1135CA0044B0020191CFDF7E5FA031C181C03F033
S1135CB047FDC0465CF0FF1F80B500AF034B0022D8
S1135CC01A80024B00225A80BD4680BDF805002090
S1135CD080B500AF0F4B1B78DBB2002B17D00E4BF7
S1135CE000221A700D4B00221A70FFF7E5FF0C4BCF
S1135CF000221A700B4B1A68094B101C191C012244
S1135D0000F00AFA074B1B68181C00F0E1F9BD46C5
S1135D1080BDC04661F0FF1F62F0FF1F60F0FF1FEF
S1135D2000060020FC05002080B582B000AF021CF4
S1135D30FB1D1A700D4B1B78DBB2002B01D008231E
S1135D400FE00A4B01221A70FFF7C2FFFB1D1B78FC
S1135D50002B05D0C046054B1B78DBB2012BFAD0D3
S1135D600023181CBD4602B080BDC04661F0FF1F71
S1135D7080B582B000AF78600B4B1B78DBB2002B90
S1135D8001D109230BE0094B1B889AB27B681A8066
S1135D907B680233054A528892B21A800023181C89
S1135DA0BD4602B080BDC04662F0FF1FF80500206A
S1135DB080B582B000AF7860244B1B78DBB2042B33
S1135DC00AD1234B1B68181C00F00AFA1F4B00224F
S1135DD01A70FDF717FA35E01D4B1A681D4B1B7836
S1135DE0DBB259001C4BCB18101C191C00F0C8F96D
S1135DF0184B1B78DBB20133DAB2164B1A70154B11
S1135E001B78DBB2022B0BD1124B00221A70134BFE
S1135E1001221A70FDF7F2F90C4B00221A7011E0FE
S1135E200C4B1B78DAB20E4B1A70094B1A680C4BE8
S1135E30101C191C012200F06FF9054B1B68181C7B
S1135E4000F046F9BD4602B080BDC04661F0FF1FB8
S1135E50FC05002060F0FF1FF805002062F0FF1F22
S1135E600006002080B500AF064B00221A70064BD6
S1135E7000221A70002000F0BBF8021C034B1A60C9
S1135E80BD4680BD62F0FF1F61F0FF1FFC050020CE
S1135E9080B586B000AFF860B960BB1D1A80FB689E
S1135EA07B61BB1D1B88002B01D1842329E07B6906
S1135EB01B89002B01D0082323E002F0DBFA7B6965
S1135EC0BA685A607B69BA1D12881A817B690022FC
S1135ED05A807B691B88012213439AB27B691A801A
S1135EE00A4B0A4AD278D2B2802149420A43D2B23A
S1135EF0DA70064B054A9279D2B29A7102F0C8FA66
S1135F000023181CBD4606B080BDC04600A0064054
S1135F1080B582B000AF78607B685A887B681B8943
S1135F209A421CD2194A7B685B681978D1715A1C51
S1135F307B685A607B685B8801339AB27B685A80BD
S1135F407B685A887B681B899A421CD17B68002233
S1135F501A817B68DB68181CFDF73CF913E00B4BD6
S1135F600A4AD278D1B27F220A40D2B2DA70074B01
S1135F70064A9279D2B29A717B681B8801229343B4
S1135F809AB27B681A80BD4602B080BD00A006406C
S1135F9090B583B000AF144B1B687B60134B1B7927
S1135FA0DBB21C1C221C0F23134009D00F4B0F2201
S1135FB01A710E4BDB792023221C9A43131C9CB2CA
S1135FC07B681B881A1C01231340DBB2002B07D00B
S1135FD0221C8023134003D07B68181CFFF798FF12
S1135FE0BD4603B090BDC04664F0FF1F00A006404C
S1135FF080B584B000AF7860082002F055F8031C27
S1136000FB60FB687A685A60284BFA681A60FB6880
S113601000221A70FB6800229A70254A2449254BF5
S1136020CB58802109051943224BD150224A2249D9
